:020000021000EC
:10F0000045C0000068C0000066C0000064C0000089
:10F0100062C0000060C000005EC000005CC0000074
:10F020005AC0000058C0000056C0000054C0000084
:10F0300052C0000050C000004EC000004CC0000094
:10F040004AC0000048C0000046C0000044C00000A4
:10F0500042C0000040C000003EC000003CC00000B4
:10F060003AC0000038C0000036C0000034C00000C4
:10F0700032C0000030C000002EC000002CC00000D4
:10F080002AC0000028C0000026C0000011241FBEB6
:10F09000CFEFD0E4DEBFCDBF88E10FB6F894809308
:10F0A0006000109260000FBE11E0A0E0B1E0E0E36C
:10F0B000FFEF01E00BBF02C007900D92A630B10731
:10F0C000D9F715E0A6E0B1E001C01D92AD36B10759
:10F0D000E1F74DD42BC794CF0F931F93FC014250FF
:10F0E00051096109710986819781A085B1850297CF
:10F0F000A109B109481759076A077B0770F4A78966
:10F10000B0E09A01AB018DD6028913892489358933
:10F11000600F711F821F931F03C060E070E0CB017E
:10F120001F910F91089580E00895CF92DF92EF92A2
:10F13000FF92CF93DF93EC016A017B0180910B0179
:10F1400090910C01409106015091070160910801D6
:10F15000709109014C155D056E057F0519F4C817FE
:10F16000D907C1F0C114D104E104F10499F0B70149
:10F17000A6018DE091E022D681110EC0C092060159
:10F18000D0920701E0920801F0920901D0930C019E
:10F19000C0930B0181E001C080E0DF91CF91FF902F
:10F1A000EF90DF90CF900895C0CF0895BECF08951F
:10F1B000A0E0B0E0EDEDF8EF65C6EC016A017B017F
:10F1C000423051056105710508F48AC08E819F8126
:10F1D000A885B985481759076A077B0708F080C0DA
:10F1E0008A849B84AC84BD848E89823009F446C0B5
:10F1F000833009F458C0813009F072C08A01000FD1
:10F20000111F0C0D1D1D16950795C801892F9927F3
:10F210008695B501A401480F591F611D711DCE01CE
:10F22000C5DF882309F45CC0F801F170EA5FFE4F86
:10F2300077800F5F1F4FC801892F99278695B501E9
:10F24000A401480F591F611D711DCE01AFDF882336
:10F2500009F446C0F801F170EA5FFE4F8781672D1F
:10F2600070E0782BC0FE06C044E0769567954A951D
:10F27000E1F701C07F7080E090E036C0452F562F47
:10F28000672F7727480D591D6A1D7B1DCE018EDF24
:10F29000882331F1F601EE0FFF1FF170E35FFE4F9F
:10F2A00060817181E8CF97E076956795579547958E
:10F2B0009A95D1F7480D591D6A1D7B1DCE0176DF49
:10F2C000882371F0F601EE0FFF1FEE0FFF1FF170A4
:10F2D000E35FFE4F60817181828193819F7004C0E2
:10F2E00061E070E080E090E0CDB7DEB7EDE0E6C52C
:10F2F000CF92DF92EF92FF926A017B0157DF81117B
:10F3000002C082E034C0CD28CE28CF2881F440E06E
:10F3100050E0BA018DE091E051D58111F2CF109209
:10F3200006011092070110920801109209018091C4
:10F330000B0390910C0385359A4A19F743E050E08E
:10F3400060E071E083E491E0DBD5892B79F045E062
:10F3500050E060E071E08FE591E0D2D5892B11F0AB
:10F3600081E005C08091350187FDFACF80E0FF90F4
:10F37000EF90DF90CF9008954F925F926F927F92BF
:10F380008F929F92AF92BF92CF92DF92EF92FF92B5
:10F39000CF93DF93EB0189E1FB0111928A95E9F7A5
:10F3A00072D480FDC5C040E050E0BA01CE01A0DFBC
:10F3B000813099F48091CF02811102C08BE0B9C0F5
:10F3C0008090D3029090D402A090D502B090D60243
:10F3D000B501A401CE018CDF03C0812C912C540116
:10F3E0008111ECCF80911801909119018115924003
:10F3F00029F7209123013091240140E050E02115AC
:10F4000031054105510541F420913101309132011E
:10F4100040913301509134012A833B834C835D83B7
:10F42000A0911D01A88FB0E0FCD46B017C018091FC
:10F430001B0190911C01880E991EA11CB11C8A868B
:10F440009B86AC86BD8620911A012F8B40901E01B1
:10F4500050901F01598248826091200170912101D2
:10F46000CB01A0E0B0E00097A105B10541F4809187
:10F470002D0190912E01A0912F01B0913001F4E067
:10F4800056944794FA95E1F7612C712C40911B0139
:10F4900050911C01BC01CD01641B750B81099109C0
:10F4A0006C197D098E099F096419750986099709E8
:10F4B00030E040E050E0BFD42E5F3F4F4F4F5F4FF2
:10F4C0002E833F8348875987273F8FE038074105C0
:10F4D000510538F0273F3F4F4105510520F482E0A8
:10F4E00003C081E001C083E08E8B833049F48091BA
:10F4F000390190913A01A0913B01B0913C0106C0C5
:10F50000D701C601880D991DAA1DBB1D8E879F8737
:10F51000A88BB98B840C951CA61CB71C8C0C9D1C4D
:10F52000AE1CBF1C8A8A9B8AAC8ABD8A80E001C05F
:10F5300081E0DF91CF91FF90EF90DF90CF90BF906F
:10F54000AF909F908F907F906F905F904F900895B5
:10F550006115710511F0FB01168A40E00DCF0F9384
:10F560001F93FA0141E04083DB0114960D911D9138
:10F570002D913C91179704871587268737870D9122
:10F580001D912D913C91008711872287338714822A
:10F5900015821682178241839383828380E01F91B4
:10F5A0000F9108954F925F926F927F928F929F92E8
:10F5B000BF92CF92DF92EF92FF920F931F93CF9360
:10F5C000DF93EC017B018A01CA80DB80ACDDB82EC1
:10F5D0008111BBC0888187FDB3C080FFB4C088851E
:10F5E0009985AA85BB854C815D816E817F81841B55
:10F5F000950BA60BB70BA80160E070E08417950788
:10F60000A607B70708F094C08C0192C08C819D8139
:10F61000AE81BF81AC01BD01517066277727452BB4
:10F62000462B472B09F04BC02981215029832223E7
:10F6300049F04C895D896E897F894F5F5F4F6F4FBD
:10F640007F4F2DC0892B8A2B8B2B29F44C855D8510
:10F650006E857F8508C0488959896A897B89C6017A
:10F66000A7DDAB01BC01423051056105710508F40D
:10F6700064C0F60186819781A085B1854817590736
:10F680006A077B0708F059C0488B598B6A8B7B8BC4
:10F69000C60122DDAB01BC01F601878989834C8B51
:10F6A0005D8B6E8B7F8B0115F2E01F0741F4C70164
:10F6B00085D3811142C0812C82E0982E29C04C80D4
:10F6C0005D806E807F804C895D896E897F898A81AB
:10F6D0009B816ADD882389F181E0582266247724A2
:10F6E00080E092E08419950948018017910708F499
:10F6F0004C018C819D81AE81BF819170AA27BB276F
:10F70000BC01695F7F4F6A5F7E4FA401C70105D4CA
:10F71000E80CF91C8C819D81AE81BF81880D991DFB
:10F72000A11DB11D8C839D83AE83BF830819190968
:10F730000115110509F06ACF08C0888180688883A7
:10F74000B8E0BB2E02C0A6E0BA2E8B2DDF91CF9180
:10F750001F910F91FF90EF90DF90CF90BF909F90FF
:10F760008F907F906F905F904F900895CF93DF932D
:10F77000EB019B838A83FC014685578560897189EB
:10F780002689233071F44C835D836E837F834887A1
:10F7900059876A877B87A0DC6C877D878E879F87E8
:10F7A0000CC01C821D821E821F82188619861A8632
:10F7B0001B864C875D876E877F871982188280E061
:10F7C000DF91CF910895A0E0B0E0E8EEFBEF5BC3DE
:10F7D000EC018B01EA80FB80A6DC8111B2C0D8016C
:10F7E00018961C929CC0C701E1DC882309F4A2C0D2
:10F7F000E881F981EF70FF2735E0EE0FFF1F3A95A2
:10F80000E1F7DF01AA5FBE4F17968C91811102C00C
:10F8100080E097C0853E39F1E35FFE4F838583FD2D
:10F8200022C081E0D80118968C931897448D558D8D
:10F83000668D778D4D935D936D937C93139784893B
:10F840009589A0E0B0E0DC0199278827428D538D8F
:10F8500060E070E0842B952BA62BB72BF8018483F6
:10F860009583A683B783C880D980FFEFCF1ADF0ABC
:10F87000C6018F709927892B09F04BC08C859D8517
:10F88000AE85BF850196A11DB11D8C879D87AE8772
:10F89000BF87488559856A857B858A819B8141150B
:10F8A00051056105710539F4DC018D919C91C816F3
:10F8B000D90678F141C0FC01278930E02150310997
:10F8C000F601A4E0F695E795AA95E1F72E233F23EC
:10F8D000232BF9F46DDCAB01BC014230510561050D
:10F8E000710550F18A819B81DC0116968D909D9067
:10F8F000AD90BC901997481559056A057B05E0F451
:10F90000488759876A877B87E7DB6C877D878E8787
:10F910009F87D982C882F8018085811179CF4C8573
:10F920005D856E857F85411551056105710509F07D
:10F930005ACF6ECF88E005C01C861D861E861F86A6
:10F94000EACFCDB7DEB7ECE0BAC28627082E8295A3
:10F95000807F8025092E982F82958F7008268695A6
:10F9600098278927880F880F880F8025089585B7E5
:10F97000806885BF85BF089A099A1198109A1098D7
:10F980006DE073E080E0E4DD809326038111E7C041
:10F9900067E273E08DE093E0E9DED6C08091370343
:10F9A00090913803A0913903B0913A038115904F9B
:10F9B000A140B10509F0C8C04CE453E067E373E02F
:10F9C0008DE093E0CCDDC8EFD0E00FEF1FEF40E01B
:10F9D00052E064E673E08CE493E0E4DD8111B4C0AE
:10F9E00074E6E72E73E0F72EF70161917F01C801FD
:10F9F000ACDF8C01F4E6EF16F5E0FF06A9F72197DE
:10FA000031F7009709F0A0C0ECE5F5E0A4E6B5E019
:10FA100088E001900D928A95E1F7809164059091BC
:10FA20006505A0916605B09167058C349245A345A4
:10FA3000B04509F089C0209168053091690521150C
:10FA4000310581F48EEF9FEEA1E0B0E0ABBFFC0189
:10FA50008791969140916A0550916B054817590717
:10FA600009F0BDC08CEF9FEEA1E0B0E0ABBFFC01A0
:10FA7000879196918F3F4FEF940709F4B0C082179A
:10FA8000930708F061C0ABC0C0FF02C0109801C06E
:10FA9000109A40E052E064E673E08CE493E082DD8B
:10FAA000882329F081E180935700E89558C024E627
:10FAB00033E0D701C601A90163E0FC01A0935B001C
:10FAC00060935700E89507B600FCFDCF10E0812E4B
:10FAD000912C880C991CAA2497FCA094BA2C880E0F
:10FAE000991EAA1EBB1EFA0161917191AF0101E03E
:10FAF0000B01F401A0925B0000935700E8951124DC
:10FB00001F5F103821F745E0FC01A0935B00409394
:10FB10005700E89507B600FCFDCF9F5FAF4FBF4F82
:10FB20003395F5E024363F0709F0C5CF22E0D20E29
:10FB3000E11CF11C2197C11430EFD30631E0E3063C
:10FB4000F10409F0A1CFAECF67E373E087E293E061
:10FB50003ADE811104C080913F0381111FCF109ABA
:10FB6000C0E0D0E08FEF9FEFFE016491EEDE2196C2
:10FB7000D9F7C12CD12C7601E394EBBEF601679145
:10FB8000E4DEFFEFCF1ADF0AEF0AFF0AC11420EF0D
:10FB9000D20621E0E206F10481F7009741F411B8A2
:10FBA00012B81CBC1DBC15B814B8FC0109958AE03C
:10FBB000119AFFEF20E732E0F15020403040E1F7AA
:10FBC00000C0000011984FEF90E7E2E041509040F4
:10FBD000E040E1F700C00000815051F7D0CE4CE486
:10FBE00053E067E373E08DE093E0B9DCC8EFD0E069
:10FBF000C12CD12C76019ECF882311F02C9A089528
:10FC00002C9808958EBD0DB407FEFDCF8EB50895D6
:10FC10000F931F93CF93DF938C01EC0124968A916D
:10FC2000F1DF8883C017D107D1F7DF91CF911F9102
:10FC30000F910895A5E0B0E0EFE1FEEF2CC1182F81
:10FC400049835A836B837C8380E02D83D5DF812FAA
:10FC5000D9DFCE010196DCDF2D81822FD3DF0FEFBC
:10FC60001FEF8FEFCFDF87FF03C001501109C9F7E6
:10FC70002596E4E02CC181E0BFDF8FEFC3DF8FEF7B
:10FC8000C1DF8FEFBFCFA5E0B0E0E8E4FEEF02C137
:10FC90008FED85B980EB84B981E08DBD82E58CBDA7
:10FCA0008DB58EB503E010E010926C0581E0A4DF05
:10FCB0008AE0F82E8FEFA6DFFA94E1F725E940E01D
:10FCC00050E0BA0180E4B6DF8D83D5DF8D8187FFF8
:10FCD00002C081E070C0813021F00150110921F78C
:10FCE000F8CF27E84AEA51E060E070E088E4A2DF5C
:10FCF000813039F419821A821B821C82CE0101964E
:10FD000087DFB9DF0FEF1FEF2FEF40E050E0BA01C0
:10FD100087E790DFF82EAFDF81E0F81229C02FEFE0
:10FD200040E050E060E070E489E684DF8D83A3DF8B
:10FD30008D81813021F40150110931F719C08111F1
:10FD400017C02FEF40E050E0BA018AE773DF82303E
:10FD500070F419821A821B821C82CE01019658DF30
:10FD600049815A816B817C8176FDF0926C0583DF3D
:10FD70000FEF1FEF2FEF40E050E060E070E481E410
:10FD800059DF8D8378DF8D81882341F0015011097F
:10FD900089F79FCF81E58CBD80E00DC02FEF40E05B
:10FDA00052E060E070E080E545DF8D8364DF8D81A7
:10FDB00081118FCFEFCF2596E5E088C0CF93DF93F9
:10FDC000EC0180916C05811107C099E0440F551F2B
:10FDD000661F771F9A95D1F72FEF81E52BDF8823D8
:10FDE00019F049DF81E01AC08FEF0CDF8E3FE1F799
:10FDF0008FEF8EBDCE019E5F0DB407FEFDCF2EB5F9
:10FE00003FEF3EBD2993C817D907B1F70DB407FEE0
:10FE1000FDCF8EB58FEFF6DE2EDF80E0DF91CF9144
:10FE2000089562D0A59F900DB49F900DA49F800D62
:10FE3000911D11240895A1E21A2EAA1BBB1BFD01DE
:10FE40000DC0AA1FBB1FEE1FFF1FA217B307E407B9
:10FE5000F50720F0A21BB30BE40BF50B661F771F11
:10FE6000881F991F1A9469F76095709580959095F1
:10FE70009B01AC01BD01CF0108952F923F924F929B
:10FE80005F926F927F928F929F92AF92BF92CF922A
:10FE9000DF92EF92FF920F931F93CF93DF93CDB733
:10FEA000DEB7CA1BDB0B0FB6F894DEBF0FBECDBFAB
:10FEB00009942A88398848885F846E847D848C847C
:10FEC0009B84AA84B984C884DF80EE80FD800C8185
:10FED0001B81AA81B981CE0FD11D0FB6F894DEBF68
:10FEE0000FBECDBFED010895A29FB001B39FC00129
:10FEF000A39F01D0B29F700D811D1124911D089503
:10FF0000FB01DC0104C08D910190801921F4415066
:10FF10005040C8F7881B990B0895FB01DC0102C013
:10FF200001900D9241505040D8F70895F894FFCFBA
:06FF30004641543332008B
:040000031000F000F9
:00000001FF
